:020000040800F2
:1000000000C001204D350008B5340008BB3400089D
:10001000C1340008C7340008CD34000800000000D7
:10002000000000000000000000000000D3340008C1
:10003000E134000800000000EF340008FD3400083F
:100040009D3500089D3500089D3500089D35000848
:100050009D3500089D350008093500089D350008CC
:100060009D3500089D3500089D3500089D35000828
:100070009D3500089D3500089D3500089D35000818
:100080009D3500089D3500089D3500089D35000808
:100090009D3500089D3500089D3500089D350008F8
:1000A0009D3500089D3500089D3500089D350008E8
:1000B0009D3500089D3500089D3500089D350008D8
:1000C0009D3500089D3500089D3500089D350008C8
:1000D0009D3500089D3500089D3500089D350008B8
:1000E000173500089D3500089D3500089D3500082E
:1000F0009D3500089D3500089D3500089D35000898
:100100009D3500089D3500089D3500089D35000887
:100110009D3500089D3500089D3500089D35000877
:100120009D3500089D3500089D3500089D35000867
:100130009D3500089D3500089D3500089D35000857
:100140009D3500089D3500089D3500089D35000847
:100150009D3500089D3500089D3500089D35000837
:100160009D3500089D3500089D3500089D35000827
:100170009D3500089D3500089D35000800000000F1
:080180009D3500089D350008C3
:1001900010B5054C237833B9044B13B10448AFF3C1
:1001A00000800123237010BDDC010020000000004E
:1001B0007852000808B5034B1BB103490348AFF35D
:1001C000008008BD00000000E00100207852000817
:1001D00001F0FF01102A2BDB10F0070F08D010F8F8
:1001E000013B013A8B422DD010F0070F42B3F6D1FC
:1001F000F0B441EA012141EA014122F007047FF015
:1002000000070023F0E80256083C85EA010586EA6B
:10021000010685FA47F5A3FA87F586FA47F6A5FAA7
:1002200087F68EB9EED1F0BC01F0FF0102F00702B3
:1002300032B110F8013B013A83EA010313B1F8D15E
:100240000020704701387047002D06BF354603383F
:10025000073815F0010F07D1013015F4807F02BF78
:10026000013015F4C03F0130F0BC0138704700BFC9
:1002700053B94AB9002908BF00281CBF4FF0FF310D
:100280004FF0FF3000F07AB9ADF1080C6DE904CE03
:1002900000F006F8DDF804E0DDE9022304B0704761
:1002A0002DE9F0478C460D460446089E002B51D19F
:1002B0008A4217466DD9B2FA82FEBEF1000F0BD00A
:1002C000CEF1200C01FA0EF520FA0CFC02FA0EF722
:1002D0004CEA050C00FA0EF44FEA174A250CBCFB59
:1002E000FAF81FFA87F90AFB18CC45EA0C4508FB17
:1002F00009F3AB420AD9ED1908F1FF3280F02381EE
:10030000AB4240F22081A8F102083D44ED1AA4B2AC
:10031000B5FBFAF00AFB105544EA054400FB09F965
:10032000A14509D9E41900F1FF3380F00A81A14504
:1003300040F2078102383C44A4EB090440EA08403B
:100340000021002E61D024FA0EF400233460736083
:10035000BDE8F0878B4207D9002E54D0002186E8F3
:1003600021000846BDE8F087B3FA83F1002940F088
:100370008E80AB4202D3824200F2FA80841A65EB8F
:1003800003050120AC46002E3FD086E81010BDE8E2
:10039000F08712B90127B7FBF2F7B7FA87FEBEF173
:1003A000000F34D1EB1B3A0C1FFA87FC0121B3FB81
:1003B000F2F8250C02FB183345EA03450CFB08F361
:1003C000AB4207D9ED1908F1FF3002D2AB4200F27F
:1003D000D1808046ED1AA3B2B5FBF2F002FB1055B6
:1003E00043EA05440CFB00FCA44507D9E41900F1DD
:1003F000FF3302D2A44500F2B8801846A4EB0C04E7
:1004000040EA08409DE731463046BDE8F087CEF12E
:10041000200405FA0EF307FA0EF720FA04F83A0C56
:1004200025FA04F448EA0308B4FBF2F14FEA184550
:1004300002FB11441FFA87FC45EA044501FB0CF35B
:10044000AB4200FA0EF409D9ED1901F1FF3080F04A
:100450008A80AB4240F2878002393D44EB1A1FFA92
:1004600088F5B3FBF2F002FB103345EA034500FBCD
:100470000CF3AB4207D9ED1900F1FF386FD2AB4254
:100480006DD902383D44EB1A40EA01418FE7C1F1D2
:10049000200722FA07F88B4005FA01F448EA030323
:1004A00020FA07FE4FEA134CFD404EEA040EB5FB5E
:1004B000FCF94FEA1E440CFB19551FFA83F844EA75
:1004C000054509FB08F4AC4202FA01F200FA01FA10
:1004D00008D9ED1809F1FF3043D2AC4241D9A9F156
:1004E00002091D442D1B1FFA8EFEB5FBFCF00CFB10
:1004F00010554EEA054400FB08F8A04507D9E4185A
:1005000000F1FF3529D2A04527D902381C4440EA22
:100510000940A4EB0804A0FB02894C45C6464D46A1
:1005200015D312D056B1BAEB0E0364EB050404FAEE
:1005300007F7CB401F43CC40376074600021BDE813
:10054000F0871846F8E69046E0E6C245EAD2B8EBF6
:10055000020E69EB03050138E4E72846D7E7404679
:1005600091E78146BEE7014678E702383C4445E71B
:10057000084608E7A8F102083D442BE7704700BF92
:1005800080B500AF0E4A0E4B1B6843F40073136036
:100590000B4A0B4B1B6843F480631360084A084BFB
:1005A0001B6843F480731360032000F029F90020D6
:1005B00000F008F802F018FE0023184680BD00BFC6
:1005C000003C024080B582B000AF7860124B1A68E0
:1005D000124B1B7819464FF47A73B3FBF1F3B2FB5D
:1005E000F3F3184600F041F90346002B01D0012334
:1005F0000EE07B680F2B0AD8002279684FF0FF309D
:1006000000F009F9064A7B681360002300E001232B
:1006100018460837BD4680BD0800002004000020B1
:100620000000002080B400AF064B1B781A46064B32
:100630001B681344044A136000BFBD465DF8047B89
:10064000704700BF040000201002002080B400AFFB
:10065000034B1B681846BD465DF8047B704700BF1E
:100660001002002080B485B000AF78607B6803F092
:100670000703FB600C4BDB68BB60BA684FF6FF03F7
:100680001340BB60FB681A02BB68134343F0BF63AF
:1006900043F40033BB60044ABB68D36000BF143727
:1006A000BD465DF8047B704700ED00E080B400AF0C
:1006B000044BDB681B0A03F007031846BD465DF8D0
:1006C000047B704700ED00E080B483B000AF0346C8
:1006D000FB7197F90730002B0BDB094997F90730BD
:1006E0005B09FA7902F01F02012000FA02F241F8D8
:1006F000232000BF0C37BD465DF8047B704700BF68
:1007000000E100E080B483B000AF03463960FB71C4
:1007100097F90730002B0ADB0D4997F907303A6843
:10072000D2B21201D2B20B4483F800230AE0094985
:10073000FB7903F00F03043B3A68D2B21201D2B244
:100740000B441A7600BF0C37BD465DF8047B70473A
:1007500000E100E000ED00E080B489B000AFF86097
:10076000B9607A60FB6803F00703FB61FB69C3F1C2
:100770000703042B28BF0423BB61FB690433062B4A
:1007800002D9FB69033B00E000237B610122BB69C6
:1007900002FA03F35A1EBB681A407B699A40012192
:1007A0007B6901FA03F3591E7B680B40134318461B
:1007B0002437BD465DF8047B7047000080B582B0E9
:1007C00000AF78607B68013BB3F1807F01D30123E8
:1007D0000FE00A4A7B68013B53600F214FF0FF3066
:1007E000FFF790FF054B00229A60044B07221A6026
:1007F000002318460837BD4680BD00BF10E000E06A
:1008000080B582B000AF78607868FFF72BFF00BF3B
:100810000837BD4680BD80B586B000AF0346B960DD
:100820007A60FB7300237B61FFF740FF78617A6891
:10083000B9687869FFF790FF024697F90F301146C3
:100840001846FFF75FFF00BF1837BD4680BD80B573
:1008500082B000AF0346FB7197F907301846FFF7E7
:1008600033FF00BF0837BD4680BD80B582B000AF02
:1008700078607868FFF7A2FF034618460837BD4640
:1008800080BD000080B489B000AF7860396000237B
:100890007B6100233B610023BB610023FB616BE1B3
:1008A0000122FB6902FA03F37B613B681A687B69EA
:1008B00013403B613A697B699A4240F05A813B6838
:1008C0005B6803F00303012B05D03B685B6803F012
:1008D0000303022B30D17B689B68BB61FB695B0023
:1008E000032202FA03F3DB43BA691340BB613B689E
:1008F000DA68FB695B0002FA03F3BA691343BB6170
:100900007B68BA699A607B685B68BB610122FB699E
:1009100002FA03F3DB43BA691340BB613B685B68CF
:100920001B0903F00102FB6902FA03F3BA691343DE
:10093000BB617B68BA695A603B685B6803F003037C
:10094000032B17D07B68DB68BB61FB695B0003226C
:1009500002FA03F3DB43BA691340BB613B689A6850
:10096000FB695B0002FA03F3BA691343BB617B685E
:10097000BA69DA603B685B6803F00303022B23D19A
:10098000FB69DA087B68083253F82230BB61FB69E7
:1009900003F007039B000F2202FA03F3DB43BA695B
:1009A0001340BB613B681A69FB6903F007039B00B6
:1009B00002FA03F3BA691343BB61FB69DA087B6887
:1009C0000832B96943F822107B681B68BB61FB6978
:1009D0005B00032202FA03F3DB43BA691340BB61F5
:1009E0003B685B6803F00302FB695B0002FA03F3F8
:1009F000BA691343BB617B68BA691A603B685B687C
:100A000003F44033002B00F0B4800023FB605F4A06
:100A10005E4B5B6C43F4804353645C4B5B6C03F450
:100A20008043FB60FB685A4AFB699B08023352F81B
:100A30002330BB61FB6903F003039B000F2202FA22
:100A400003F3DB43BA691340BB617B68514A9342AD
:100A50002BD07B68504A934225D07B684F4A934203
:100A60001FD07B684E4A934219D07B684D4A93420F
:100A700013D07B684C4A93420DD07B684B4A93421B
:100A800007D07B684A4A934201D107230EE008232E
:100A90000CE006230AE0052308E0042306E0032314
:100AA00004E0022302E0012300E00023FA6902F0DF
:100AB000030292009340BA691343BB613449FB6956
:100AC0009B080233BA6941F823203A4B9B68BB610B
:100AD0003B69DB43BA691340BB613B685B6803F465
:100AE0008013002B03D0BA693B691343BB61314AC1
:100AF000BB6993602F4BDB68BB613B69DB43BA6921
:100B00001340BB613B685B6803F40013002B03D008
:100B1000BA693B691343BB61264ABB69D360254B65
:100B20005B68BB613B69DB43BA691340BB613B68EF
:100B30005B6803F40033002B03D0BA693B691343AD
:100B4000BB611C4ABB6953601A4B1B68BB613B69A4
:100B5000DB43BA691340BB613B685B6803F48033D5
:100B6000002B03D0BA693B691343BB61114ABB69CF
:100B70001360FB690133FB61FB690F2B7FF690AEBD
:100B800000BF2437BD465DF8047B70470038024043
:100B9000003801400000024000040240000802400A
:100BA000000C0240001002400014024000180240F5
:100BB000001C0240003C014080B483B000AF78606C
:100BC0000B467B8013467B707B78002B03D07A88A2
:100BD0007B689A6103E07B881A047B689A6100BF96
:100BE0000C37BD465DF8047B704780B485B000AF1C
:100BF00078600B467B807B685B69FB607A88FB686A
:100C000013401A04FB68D9437B880B401A437B6866
:100C10009A6100BF1437BD465DF8047B7047000041
:100C200080B582B000AF0346FB80084B5A69FB8851
:100C30001340002B06D0054AFB885361FB881846F9
:100C400002F0DAF900BF0837BD4680BD003C014024
:100C500080B586B000AF78607B68002B01D101239E
:100C600064E27B681B6803F00103002B75D0A34B83
:100C70009B6803F00C03042B0CD0A04B9B6803F083
:100C80000C03082B12D19D4B5B6803F48003B3F572
:100C9000800F0BD1994B1B6803F40033002B5BD002
:100CA0007B685B68002B57D101233FE27B685B6860
:100CB000B3F5803F06D1914A904B1B6843F48033D3
:100CC00013601DE07B685B68B3F5A02F0CD18B4AE5
:100CD0008A4B1B6843F480231360884A874B1B6848
:100CE00043F4803313600BE0844A844B1B6823F485
:100CF00080331360814A814B1B6823F48023136087
:100D00007B685B68002B13D0FFF7A0FC386108E01C
:100D1000FFF79CFC02463B69D31A642B01D90323DD
:100D200004E2764B1B6803F40033002BF0D014E090
:100D3000FFF78CFC386108E0FFF788FC02463B694E
:100D4000D31A642B01D90323F0E16C4B1B6803F425
:100D50000033002BF0D100E000BF7B681B6803F07C
:100D60000203002B63D0654B9B6803F00C03002B40
:100D70000BD0624B9B6803F00C03082B1CD15F4B1C
:100D80005B6803F48003002B16D15C4B1B6803F0F7
:100D90000203002B05D07B68DB68012B01D0012307
:100DA000C4E15649554B1B6823F0F8027B681B6968
:100DB000DB0013430B603AE07B68DB68002B20D03C
:100DC0004F4B01221A60FFF741FC386108E0FFF742
:100DD0003DFC02463B69D31A022B01D90323A5E14E
:100DE000464B1B6803F00203002BF0D04349434BF2
:100DF0001B6823F0F8027B681B69DB0013430B6060
:100E000015E03F4B00221A60FFF720FC386108E034
:100E1000FFF71CFC02463B69D31A022B01D90323BE
:100E200084E1364B1B6803F00203002BF0D17B6892
:100E30001B6803F00803002B30D07B685B69002B34
:100E400016D0304B01221A60FFF700FC386108E031
:100E5000FFF7FCFB02463B69D31A022B01D903239F
:100E600064E1264B5B6F03F00203002BF0D015E02A
:100E7000244B00221A60FFF7E9FB386108E0FFF716
:100E8000E5FB02463B69D31A022B01D903234DE14E
:100E90001A4B5B6F03F00203002BF0D17B681B68D9
:100EA00003F00403002B00F0A0800023FB75134B1C
:100EB0001B6C03F08053002B0FD10023BB600F4A43
:100EC0000E4B1B6C43F0805313640C4B1B6C03F0F4
:100ED0008053BB60BB680123FB750B4B1B6803F49D
:100EE0008073002B21D1084A074B1B6843F48073A1
:100EF0001360FFF7ABFB386111E000BF0038024020
:100F000000004742800E474200700040FFF79EFB02
:100F100002463B69D31A022B01D9032306E1854B14
:100F20001B6803F48073002BF0D07B689B68012B57
:100F300006D1814A804B1B6F43F0010313671CE00D
:100F40007B689B68052B0CD17B4A7B4B1B6F43F066
:100F500004031367784A784B1B6F43F00103136750
:100F60000BE0754A744B1B6F23F001031367724A41
:100F7000714B1B6F23F0040313677B689B68002B86
:100F800015D0FFF763FB38610AE0FFF75FFB02460D
:100F90003B69D31A41F28832934201D90323C5E059
:100FA000654B1B6F03F00203002BEED014E0FFF73C
:100FB0004DFB38610AE0FFF749FB02463B69D31A53
:100FC00041F28832934201D90323AFE05A4B1B6FA1
:100FD00003F00203002BEED1FB7D012B05D1564A15
:100FE000554B1B6C23F0805313647B689B69002B6B
:100FF00000F09B80504B9B6803F00C03082B5CD0E7
:101000007B689B69022B41D14C4B00221A60FFF791
:101010001DFB386108E0FFF719FB02463B69D31A54
:10102000022B01D9032381E0434B1B6803F00073BB
:10103000002BF0D140497B68DA697B681B6A1A4350
:101040007B685B6A9B011A437B689B6A5B08013B78
:101050001B041A437B68DB6A1B0613434B60374B48
:1010600001221A60FFF7F2FA386108E0FFF7EEFAA2
:1010700002463B69D31A022B01D9032356E02E4BBB
:101080001B6803F00073002BF0D04EE02B4B0022C6
:101090001A60FFF7DBFA386108E0FFF7D7FA02467B
:1010A0003B69D31A022B01D903233FE0224B1B6873
:1010B00003F00073002BF0D137E07B689B69012BB4
:1010C00001D1012332E01C4B5B68FB607B689B69AC
:1010D000012B28D0FB6803F480027B68DB699A420D
:1010E00021D1FB6803F03F027B681B6A9A421AD148
:1010F000FA6847F6C07313407A68526A92019342C5
:1011000011D1FB6803F440327B689B6A5B08013BAA
:101110001B049A4207D1FB6803F070627B68DB6AAC
:101120001B069A4201D0012300E00023184618371D
:10113000BD4680BD0070004000380240600047425C
:1011400080B584B000AF786039607B68002B01D136
:101150000123CCE0684B1B6803F007023B689A420E
:101160000CD2654B3A68D2B21A70634B1B6803F01D
:1011700007023B689A4201D00123B8E07B681B68F4
:1011800003F00203002B20D07B681B6803F00403EC
:10119000002B05D0594A594B9B6843F4E0539360A8
:1011A0007B681B6803F00803002B05D0534A534BA0
:1011B0009B6843F4604393605049504B9B6823F015
:1011C000F0027B689B6813438B607B681B6803F0AD
:1011D0000103002B44D07B685B68012B07D1474B90
:1011E0001B6803F40033002B19D101237FE07B68D7
:1011F0005B68022B03D07B685B68032B07D13F4BF6
:101200001B6803F00073002B09D101236FE03B4BF7
:101210001B6803F00203002B01D1012367E037496B
:10122000364B9B6823F003027B685B6813438B603B
:10123000FFF70CFAF8600AE0FFF708FA0246FB68CD
:10124000D31A41F28832934201D903234FE02B4B4A
:101250009B6803F00C027B685B689B009A42EBD1B1
:10126000254B1B6803F007023B689A420CD9224BBE
:101270003A68D2B21A70204B1B6803F007023B6831
:101280009A4201D0012332E07B681B6803F004031B
:10129000002B08D01949194B9B6823F4E0527B6856
:1012A000DB6813438B607B681B6803F00803002B2B
:1012B00009D01249114B9B6823F460427B681B697B
:1012C000DB0013438B6000F021F801460B4B9B6859
:1012D0001B0903F00F030A4AD35C21FA03F3094AFE
:1012E0001360094B1B681846FFF76CF9002318467A
:1012F0001037BD4680BD00BF003C024000380240B0
:101300002053000808000020000000202DE9F04FC5
:101310008FB000AF0023FB6200237B630023BB621E
:1013200000233B63624B9B6803F00C03042B07D044
:10133000082B08D0002B40F0B2805E4B3B63B1E03D
:101340005D4B3B63AEE05A4B5B6803F03F03FB62CF
:10135000574B5B6803F48003002B4ED0544B5B6803
:101360009B094FF0000440F2FF114FF0000201EA28
:10137000030102EA04020B46144660017862786AAF
:1013800040EAD36078625B013B62D7E908345B1ABC
:1013900064EB02044FEA841949EA93694FEA83181F
:1013A000B8EB030869EB04094FEAC903FB61FB6969
:1013B00043EA5873FB614FEAC803BB61D7E906896A
:1013C00018EB010849EB02094FEA49237B617B696D
:1013D00043EAD8537B614FEA48233B61D7E904894C
:1013E00040464946FB6A4FF000041A462346FEF782
:1013F0003FFF03460C467B6343E02D4B5B689B0934
:101400004FF0000440F2FF114FF0000201EA030127
:1014100002EA04020B4614466001F860F86840EAEC
:10142000D360F8605B01BB60D7E902345B1A64EB00
:101430000204A60146EA93669D01ED1A66EB0406D6
:10144000F3007B607B6843EA55737B60EB003B6095
:1014500097E860006D1846EB02064FEA862B4BEAD0
:10146000955B4FEA852A55465E4628463146FB6A1B
:101470004FF000041A462346FEF7FAFE03460C46D8
:101480007B630B4B5B681B0C03F0030301335B00B6
:10149000BB627A6BBB6AB2FBF3F33B6302E0054BC2
:1014A0003B6300BF3B6B18463C37BD46BDE8F08F41
:1014B000003802400024F40000127A0080B400AF2B
:1014C000034B1B681846BD465DF8047B704700BFA0
:1014D0000800002080B500AFFFF7F0FF0146054B84
:1014E0009B689B0A03F00703034AD35C21FA03F3CA
:1014F000184680BD003802403053000880B500AF68
:10150000FFF7DCFF0146054B9B685B0B03F007030D
:10151000034AD35C21FA03F3184680BD0038024029
:101520003053000880B582B000AF78607B68002B34
:1015300001D101237AE07B685B6A002B08D17B68CC
:101540005B68B3F5827F09D07B680022DA6105E031
:101550007B6800221A617B6800225A617B68002246
:101560009A627B6893F85130DBB2002B06D17B681E
:10157000002283F85020786801F05EFE7B6802222A
:1015800083F851207B681B687A681268126822F021
:1015900040021A607B681B687A68526802F48271A4
:1015A0007A68926802F4044211437A68D26802F4BD
:1015B000006211437A68126902F0020211437A68EC
:1015C000526902F0010211437A68926902F40072D2
:1015D00011437A68D26902F0380211437A68126ABC
:1015E00002F0800211437A68926A02F400520A43C0
:1015F0001A607B681B687A689269120C02F0040119
:101600007A68526A02F010020A435A607B681B68CB
:101610007A681268D26922F40062DA617B6800227B
:101620005A657B68012283F8512000231846083749
:10163000BD4680BD80B582B000AF78607B68002B6E
:1016400001D1012341E07B6893F83D30DBB2002BF0
:1016500006D17B68002283F83C20786801F08AFE7E
:101660007B68022283F83D207B681A687B6804331C
:101670001946104600F0CCFA7B68012283F8462018
:101680007B68012283F83E207B68012283F83F209B
:101690007B68012283F840207B68012283F8412087
:1016A0007B68012283F842207B68012283F8432073
:1016B0007B68012283F844207B68012283F845205F
:1016C0007B68012283F83D20002318460837BD4679
:1016D00080BD80B582B000AF78607B68002B01D1FF
:1016E000012341E07B6893F83D30DBB2002B06D14B
:1016F0007B68002283F83C20786800F039F87B682A
:10170000022283F83D207B681A687B6804331946FF
:10171000104600F07DFA7B68012283F846207B6842
:10172000012283F83E207B68012283F83F207B68FA
:10173000012283F840207B68012283F841207B68E6
:10174000012283F842207B68012283F843207B68D2
:10175000012283F844207B68012283F845207B68BE
:10176000012283F83D20002318460837BD4680BD7E
:1017700080B483B000AF786000BF0C37BD465DF821
:10178000047B704780B584B000AF786039603B68F7
:10179000002B09D17B6893F83E30DBB2012B14BFDC
:1017A00001230023DBB222E03B68042B09D17B68D4
:1017B00093F83F30DBB2012B14BF01230023DBB2CF
:1017C00015E03B68082B09D17B6893F84030DBB209
:1017D000012B14BF01230023DBB208E07B6893F8E0
:1017E0004130DBB2012B14BF01230023DBB2002BFD
:1017F00001D001237CE03B68002B04D17B680222EE
:1018000083F83E2013E03B68042B04D17B6802225E
:1018100083F83F200BE03B68082B04D17B68022251
:1018200083F8402003E07B68022283F841207B6834
:101830001B6801223968184600F0D4FC7B681B68DD
:101840002D4A934204D07B681B682C4A934201D1F5
:10185000012300E00023002B07D07B681B687A6817
:101860001268526C42F400425A647B681B68224A38
:10187000934222D07B681B68B3F1804F1DD07B68F8
:101880001B681F4A934218D07B681B681D4A93420D
:1018900013D07B681B681C4A93420ED07B681B6880
:1018A000164A934209D07B681B68184A934204D0B9
:1018B0007B681B68164A934211D17B681B689B6842
:1018C00003F00703FB60FB68062B10D07B681B68E6
:1018D0007A681268126842F001021A6007E07B68B9
:1018E0001B687A681268126842F001021A600023CD
:1018F00018461037BD4680BD00000140000401407D
:101900000004004000080040000C0040004001407E
:101910000018004080B586B000AFF860B9607A600A
:101920000023FB75FB6893F83C30012B01D10223A7
:10193000AEE0FB68012283F83C207B680C2B00F2B0
:101940009F8001A252F823F07D190008811A000837
:10195000811A0008811A0008BD190008811A0008C0
:10196000811A0008811A0008FF190008811A00086E
:10197000811A0008811A00083F1A0008FB681B68DA
:10198000B968184600F0E4F9FB681B68FA68126849
:10199000926942F008029A61FB681B68FA68126853
:1019A000926922F004029A61FB681B68FA68126867
:1019B0009169BA6812690A439A6164E0FB681B681E
:1019C000B968184600F034FAFB681B68FA681268B8
:1019D000926942F400629A61FB681B68FA681268B7
:1019E000926922F480629A61FB681B68FA68126847
:1019F0009169BA68126912020A439A6143E0FB686E
:101A00001B68B968184600F089FAFB681B68FA6819
:101A10001268D26942F00802DA61FB681B68FA6852
:101A20001268D26922F00402DA61FB681B68FA6866
:101A30001268D169BA6812690A43DA6123E0FB6867
:101A40001B68B968184600F0DDFAFB681B68FA6885
:101A50001268D26942F40062DA61FB681B68FA68B6
:101A60001268D26922F48062DA61FB681B68FA6846
:101A70001268D169BA68126912020A43DA6102E097
:101A80000123FB7500BFFB68002283F83C20FB7D2F
:101A900018461837BD4680BD80B584B000AF786069
:101AA00039600023FB737B6893F83C30012B01D134
:101AB0000223A9E07B68012283F83C207B68022294
:101AC00083F83D207B681B689B68BB60BB6823F084
:101AD0007703BB60BB6823F47F43BB607B681B68F4
:101AE000BA689A603B681B68402B67D0402B0BD8C4
:101AF000102B73D0102B02D8002B6FD077E0202B47
:101B00006CD0302B6AD072E0702B0DD0702B04D8C3
:101B1000502B33D0602B41D069E0B3F5805F69D0A2
:101B2000B3F5005F17D062E07B6818683B6899687E
:101B30003B685A683B68DB6800F034FB7B681B68D5
:101B40009B68BB60BB6843F07703BB607B681B6826
:101B5000BA689A604FE07B6818683B6899683B6890
:101B60005A683B68DB6800F01DFB7B681B687A687D
:101B70001268926842F480429A603CE07B68186880
:101B80003B6859683B68DB681A4600F091FA7B684D
:101B90001B685021184600F0EAFA2CE07B681868B0
:101BA0003B6859683B68DB681A4600F0B0FA7B680E
:101BB0001B686021184600F0DAFA1CE07B681868A0
:101BC0003B6859683B68DB681A4600F071FA7B682D
:101BD0001B684021184600F0CAFA0CE07B681A68BE
:101BE0003B681B681946104600F0C1FA03E0012368
:101BF000FB7300E000BF7B68012283F83D207B6817
:101C0000002283F83C20FB7B18461037BD4680BD80
:101C100080B485B000AF786039607B681B68FB607A
:101C20007B68404A934213D07B68B3F1804F0FD05A
:101C30007B683D4A93420BD07B683C4A934207D075
:101C40007B683B4A934203D07B683A4A934208D16F
:101C5000FB6823F07003FB603B685B68FA68134322
:101C6000FB607B682F4A93422BD07B68B3F1804F97
:101C700027D07B682C4A934223D07B682B4A93421F
:101C80001FD07B682A4A93421BD07B68294A934223
:101C900017D07B68284A934213D07B68274A934227
:101CA0000FD07B68264A93420BD07B68254A93422B
:101CB00007D07B68244A934203D07B68234A93422F
:101CC00008D1FB6823F44073FB603B68DB68FA686B
:101CD0001343FB60FB6823F080023B685B6913439E
:101CE000FB607B68FA681A603B689A687B68DA6216
:101CF0003B681A687B689A627B680A4A934203D001
:101D00007B680C4A934203D13B681A697B681A636B
:101D10007B6801225A6100BF1437BD465DF8047B21
:101D2000704700BF00000140000400400008004070
:101D3000000C00400004014000400140004401400C
:101D40000048014000180040001C004000200040F6
:101D500080B487B000AF786039607B681B6A23F07D
:101D600001027B681A627B681B6A7B617B685B6827
:101D70003B617B689B69FB60FB6823F07003FB6041
:101D8000FB6823F00303FB603B681B68FA6813439E
:101D9000FB607B6923F002037B613B689B687A6987
:101DA00013437B617B68204A934203D07B681F4AC0
:101DB00093420CD17B6923F008037B613B68DB68AD
:101DC0007A6913437B617B6923F004037B617B6841
:101DD000154A934203D07B68144A934211D13B6960
:101DE00023F480733B613B6923F400733B613B68E0
:101DF0005B693A6913433B613B689B693A691343EA
:101E00003B617B683A695A607B68FA689A613B6813
:101E10005A687B685A637B687A691A6200BF1C370C
:101E2000BD465DF8047B704700000140000401409E
:101E300080B487B000AF786039607B681B6A23F09C
:101E400010027B681A627B681B6A7B617B685B6837
:101E50003B617B689B69FB60FB6823F4E043FB60AC
:101E6000FB6823F44073FB603B681B681B02FA6845
:101E70001343FB607B6923F020037B613B689B6815
:101E80001B017A6913437B617B68224A934203D02A
:101E90007B68214A93420DD17B6923F080037B61EB
:101EA0003B68DB681B017A6913437B617B6923F024
:101EB00040037B617B68174A934203D07B68164AD4
:101EC000934213D13B6923F480633B613B6923F464
:101ED00000633B613B685B699B003A6913433B616C
:101EE0003B689B699B003A6913433B617B683A6995
:101EF0005A607B68FA689A613B685A687B689A63A3
:101F00007B687A691A6200BF1C37BD465DF8047BA6
:101F1000704700BF000001400004014080B487B05A
:101F200000AF786039607B681B6A23F480727B683D
:101F30001A627B681B6A7B617B685B683B617B68BC
:101F4000DB69FB60FB6823F07003FB60FB6823F038
:101F50000303FB603B681B68FA681343FB607B6903
:101F600023F400737B613B689B681B027A6913430F
:101F70007B617B68214A934203D07B68204A93426D
:101F80000DD17B6923F400637B613B68DB681B0236
:101F90007A6913437B617B6923F480637B617B688F
:101FA000164A934203D07B68154A934213D13B698A
:101FB00023F480533B613B6923F400533B613B684E
:101FC0005B691B013A6913433B613B689B691B01D9
:101FD0003A6913433B617B683A695A607B68FA68E7
:101FE000DA613B685A687B68DA637B687A691A62EF
:101FF00000BF1C37BD465DF8047B70470000014000
:102000000004014080B487B000AF786039607B681D
:102010001B6A23F480527B681A627B681B6A3B61EF
:102020007B685B687B617B68DB69FB60FB6823F432
:10203000E043FB60FB6823F44073FB603B681B6874
:102040001B02FA681343FB603B6923F400533B61B6
:102050003B689B681B033A6913433B617B68124AE8
:10206000934203D07B68114A934209D17B6923F4E0
:1020700080437B613B685B699B017A6913437B61A9
:102080007B687A695A607B68FA68DA613B685A68EB
:102090007B681A647B683A691A6200BF1C37BD46C8
:1020A0005DF8047B704700BF000001400004014060
:1020B00080B487B000AFF860B9607A60FB681B6AD3
:1020C0007B61FB681B6A23F00102FB681A62FB68F4
:1020D0009B693B613B6923F0F0033B617B681B011B
:1020E0003A6913433B617B6923F00A037B617A6998
:1020F000BB6813437B61FB683A699A61FB687A6944
:102100001A6200BF1C37BD465DF8047B704780B47F
:1021100087B000AFF860B9607A60FB681B6A23F093
:102120001002FB681A62FB689B697B61FB681B6A93
:102130003B617B6923F470437B617B681B037A6995
:1021400013437B613B6923F0A0033B61BB681B0128
:102150003A6913433B61FB687A699A61FB683A69A3
:102160001A6200BF1C37BD465DF8047B704780B41F
:1021700085B000AF786039607B689B68FB60FB6866
:1021800023F07003FB603A68FB68134343F00703D6
:10219000FB607B68FA689A6000BF1437BD465DF843
:1021A000047B704780B487B000AFF860B9607A6094
:1021B0003B60FB689B687B617B6923F47F437B61A9
:1021C0003B681A027B681A43BB6813437A6913435E
:1021D0007B61FB687A699A6000BF1C37BD465DF879
:1021E000047B704780B487B000AFF860B9607A6054
:1021F000BB6803F01F03012202FA03F37B61FB6853
:102200001A6A7B69DB431A40FB681A62FB681A6A28
:10221000BB6803F01F03796801FA03F31A43FB68F4
:102220001A6200BF1C37BD465DF8047B7047000092
:1022300080B485B000AF786039607B6893F83C303B
:10224000012B01D102235AE07B68012283F83C2054
:102250007B68022283F83D207B681B685B68FB601B
:102260007B681B689B68BB60FB6823F07003FB60A6
:102270003B681B68FA681343FB607B681B68FA685D
:102280005A607B681B68214A934222D07B681B6896
:10229000B3F1804F1DD07B681B681D4A934218D054
:1022A0007B681B681B4A934213D07B681B681A4AE1
:1022B00093420ED07B681B68184A934209D07B6812
:1022C0001B68174A934204D07B681B68154A9342E7
:1022D0000CD1BB6823F08003BB603B685B68BA68C5
:1022E0001343BB607B681B68BA689A607B680122F5
:1022F00083F83D207B68002283F83C2000231846A9
:102300001437BD465DF8047B704700BF00000140F4
:102310000004004000080040000C004000040140A0
:10232000004001400018004080B582B000AF7860E6
:102330007B68002B01D101233FE07B6893F83D309F
:10234000DBB2002B06D17B68002283F83C20786842
:1023500001F068F87B68242283F83D207B681B68C5
:102360007A681268D26822F40052DA60786800F065
:10237000C9F97B681B687A681268126922F4904276
:102380001A617B681B687A681268526922F02A0217
:102390005A617B681B687A681268D26842F40052FE
:1023A000DA607B6800221A647B68202283F83D2073
:1023B0007B68202283F83E20002318460837BD465C
:1023C00080BD80B58AB002AFF860B9603B6013464B
:1023D000FB8000237B61FB6893F83D30DBB2202B50
:1023E0007BD1BB68002B02D0FB88002B01D10123DD
:1023F00074E0FB6893F83C30012B01D102236DE0BF
:10240000FB68012283F83C20FB6800221A64FB6809
:10241000212283F83D20FEF719F97861FB68FA88DC
:102420009A84FB68FA88DA84FB689B68B3F5805F5E
:1024300008D1FB681B69002B04D10023FB61BB683A
:10244000BB6103E0BB68FB610023BB61FB6800224A
:1024500083F83C2029E03B6800937B6900228021BF
:10246000F86800F0E1F80346002B01D0032335E0C3
:10247000FB69002B0AD1FB681B68BA691288C2F39A
:1024800008025A60BB690233BB6107E0FB681B6846
:10249000FA6912785A60FB690133FB61FB68DB8CD7
:1024A0009BB2013B9AB2FB68DA84FB68DB8C9BB27F
:1024B000002BD0D13B6800937B6900224021F86853
:1024C00000F0B2F80346002B01D0032306E0FB68BE
:1024D000202283F83D20002300E002231846203705
:1024E000BD4680BD80B58AB002AFF860B9603B6080
:1024F0001346FB8000237B61FB6893F83E30DBB220
:10250000202B40F08C80BB68002B02D0FB88002B76
:1025100001D1012384E0FB6893F83C30012B01D109
:1025200002237DE0FB68012283F83C20FB68002247
:102530001A64FB68222283F83E20FB6800221A639B
:10254000FEF784F87861FB68FA889A85FB68FA8858
:10255000DA85FB689B68B3F5805F08D1FB681B696F
:10256000002B04D10023FB61BB68BB6103E0BB68A7
:10257000FB610023BB61FB68002283F83C2043E041
:102580003B6800937B6900222021F86800F04CF83A
:102590000346002B01D0032342E0FB69002B0CD142
:1025A000FB681B685B689BB2C3F308039AB2BB6904
:1025B0001A80BB690233BB611FE0FB689B68B3F5FF
:1025C000805F07D0FB689B68002B0AD1FB681B6902
:1025D000002B06D1FB681B685B68DAB2FB691A70D6
:1025E00008E0FB681B685B68DBB203F07F03DAB2CC
:1025F000FB691A70FB690133FB61FB68DB8D9BB2E1
:10260000013B9AB2FB68DA85FB68DB8D9BB2002B3D
:10261000B6D1FB68202283F83E20002300E002238D
:1026200018462037BD4680BD80B590B000AFF86039
:10263000B9603B601346FB7150E0BB6CB3F1FF3FE8
:102640004CD0BB6C002B07D0FEF700F802463B686D
:10265000D21ABB6C9A4241D9FB681B680C33BB622F
:10266000BB6A53E8003F7B627B6A23F4D073FB6351
:10267000FB681B680C33FA6B7A633B63396B7A6BCC
:1026800041E80023FB62FB6A002BE5D1FB681B6875
:1026900014337B617B6953E8003F3B613B6923F066
:1026A0000103BB63FB681B681433BA6B3A62FB61BE
:1026B000F9693A6A41E80023BB61BB69002BE5D1A7
:1026C000FB68202283F83D20FB68202283F83E200F
:1026D000FB68002283F83C2003230FE0FB681B68A3
:1026E0001A68BB681A40BB689A420CBF01230023DA
:1026F000DBB21A46FB799A429FD000231846403736
:10270000BD4680BD2DE9F04F91B000AF78637B6B83
:1027100019687B6B1B681B6923F440527B6BDB6879
:1027200013430B617B6B9A687B6B1B691A437B6B52
:102730005B691A437B6BDB691343BB637B6B196873
:102740007B6B1B68DB6823F4164222F00C02BB6B28
:102750001343CB607B6B19687B6B1B685B6923F44D
:1027600040727B6B9B6913434B617B6B1A68BA4B5E
:102770009A4204D07B6B1A68B84B9A4203D1FEF799
:10278000BDFEF86302E0FEF7A5FEF8637B6BDB6934
:10279000B3F5004F40F0A7807B6B1A68BA62FB6B01
:1027A00019464FF000020B461446DB1844EB0404B4
:1027B0005B1844EB0204E0007861786940EA5370EA
:1027C0007861DB003B61D7E904345D1844EB020615
:1027D000284631467B6B5B684FF00004DB1844EB06
:1027E00004041A462346FDF743FD03460C461A46E9
:1027F0009B4BA3FB02235B091E01FB6B19464FF0A9
:1028000000020B461446DB1844EB04045B1844EB4F
:1028100002044FEAC40B4BEA537B4FEAC30A534608
:102820005C4613EB010A44EB020B504659467B6BA6
:102830005B684FF00004DB1844EB04041A4623469F
:10284000FDF716FD03460C461A46854BA3FB021303
:102850005B09642101FB03F3D31ADB003233804AA6
:10286000A2FB03235B095B0003F4F8731E44FB6BBC
:1028700019464FF000020B461446DB1844EB0404E3
:102880005B1844EB02044FEAC40949EA53794FEA62
:10289000C30843464C4613EB010844EB020940468B
:1028A00049467B6B5B684FF00004DB1844EB040483
:1028B0001A462346FDF7DCFC03460C461A46684BD5
:1028C000A3FB02135B09642101FB03F3D31ADB00B2
:1028D0003233634AA2FB03235B0903F0070333444B
:1028E000BA6A9360B3E07B6B1B683B61FB6B194674
:1028F0004FF000020B461446DB1844EB04045B184F
:1029000044EB0204E60046EA5376DD002B463446EB
:102910005D1844EB0206284631467B6B5B684FF03E
:102920000004A500FD62FD6A45EA9375FD629C0006
:10293000BC62D7E90A23FDF79BFC03460C461A4606
:10294000474BA3FB02135B091D01FB6B19464FF0BC
:1029500000020B461446DB1844EB04045B1844EBFE
:102960000204E000F860F86840EA5370F860D800AC
:10297000B860D7E9023413EB010844EB0209404682
:1029800049467B6B5B684FF00004A6007E627E6A5E
:1029900046EA93767E629C003C62D7E90823FDF705
:1029A00067FC03460C461A462D4BA3FB02135B093A
:1029B000642101FB03F3D31A1B013233284AA2FB23
:1029C00003135B0903F0F0031D44FB6B19464FF042
:1029D00000020B461446DB1844EB04045B1844EB7E
:1029E0000204E0007860786840EA53707860D800AC
:1029F000386097E8180013EB010844EB02094046E1
:102A000049467B6B5B684FF00004A600FE61FE69DF
:102A100046EA9376FE619C00BC61D7E90623FDF788
:102A200027FC03460C461A460D4BA3FB02135B0919
:102A3000642101FB03F3D31A1B013233084AA2FBC2
:102A400003135B0903F00F032B443A69936000BF43
:102A50004437BD46BDE8F08F00100140001401402E
:102A60001F85EB5180B500AFFDF78AFD00F066F8D9
:102A700000F0DAF900F0CCF800F036F900F0AAF92D
:102A800000F0FCF8214800F0E9FA214800F0C6FD0A
:102A900000212048FEF776FE4FF080431E4A126860
:102AA0005A631E4B1B78DBB2002B21D01B4B00223C
:102AB0001A701B4800F026FE17491A4800F02AFE3B
:102AC000154B1B68002B0FDB134B1B68642B0BDCB7
:102AD000114B1B68DAB2144B1A700F4B1B68194666
:102AE000124800F09BFD03E0114800F00BFEE3E705
:102AF000104B1B78DBB2002BD3D00E4B00221A7088
:102B00004FF400510C48FEF770F8CAE71403002098
:102B100090520008CC020020FC010020F9010020A6
:102B2000B8520008D052000800020020D452000819
:102B3000DC520008F8010020000C024080B594B07F
:102B400000AF07F1200330220021184600F05DFDA0
:102B500007F10C0300221A605A609A60DA601A6169
:102B60000023BB60284A284B1B6C43F0805313643E
:102B7000254B1B6C03F08053BB60BB6800237B605C
:102B8000224A224B1B6843F4804313601F4B1B688F
:102B900003F480437B607B6801233B624FF4803306
:102BA0007B620223BB634FF48003FB6308233B6417
:102BB0004FF4A8737B640223BB640723FB6407F113
:102BC00020031846FEF744F80346002B01D000F01E
:102BD00041FA0F23FB6002233B6100237B614FF42A
:102BE000A053BB614FF48053FB6107F10C03052137
:102BF0001846FEF7A5FA0346002B01D000F02AFA8A
:102C000000BF5037BD4680BD003802400070004014
:102C100080B500AF174B184A1A60164B4FF48272FA
:102C20005A60144B00229A60124B0022DA60114B5A
:102C300000221A610F4B00225A610E4B4FF40072B2
:102C40009A610C4B0822DA610A4B00221A62094B86
:102C500000225A62074B00229A62064B0A22DA626D
:102C60000448FEF75FFC0346002B01D000F0F2F9A8
:102C700000BF80BD740200200030014080B500AF6D
:102C8000174B184A1A60164B4FF482725A60144B55
:102C900000229A60124B0022DA60114B00221A6166
:102CA0000F4B00225A610E4B4FF400729A610C4B8D
:102CB0003822DA610A4B00221A62094B00225A625A
:102CC000074B00229A62064B0A22DA620448FEF79A
:102CD00029FC0346002B01D000F0BCF900BF80BDE9
:102CE000140200200038004080B58EB000AF07F11C
:102CF000280300221A605A609A60DA6007F1200304
:102D000000221A605A603B1D00221A605A609A60C5
:102D1000DA601A615A619A612D4B4FF080421A6055
:102D20002B4B43F2B0625A60294B00229A60284B29
:102D30006422DA60264B00221A61254B00229A6138
:102D40002348FEF777FC0346002B01D000F082F900
:102D50004FF48053BB6207F1280319461C48FEF765
:102D60009BFE0346002B01D000F074F91848FEF7D3
:102D7000B0FC0346002B01D000F06CF900233B624D
:102D800000237B6207F1200319461148FFF750FA30
:102D90000346002B01D000F05DF960237B60002327
:102DA000BB600023FB6000237B613B1D00221946B2
:102DB0000748FEF7AFFD0346002B01D000F04AF9AB
:102DC000034800F0F7FA00BF3837BD4680BD00BFAA
:102DD000CC02002080B500AF114B124A1A60104B94
:102DE0004FF4E1325A600E4B00229A600C4B0022E5
:102DF000DA600B4B00221A61094B0C225A61084B16
:102E000000229A61064B0022DA610548FFF78CFA2E
:102E10000346002B01D000F01DF900BF80BD00BFAC
:102E2000140300200044004080B58CB000AF07F1CF
:102E30001C0300221A605A609A60DA601A6100234B
:102E4000BB61674A664B1B6B43F010031363644B13
:102E50001B6B03F01003BB61BB6900237B61604AFD
:102E60005F4B1B6B43F0040313635D4B1B6B03F061
:102E700004037B617B6900233B61594A584B1B6B00
:102E800043F080031363564B1B6B03F080033B61DD
:102E90003B690023FB60524A514B1B6B43F001031B
:102EA00013634F4B1B6B03F00103FB60FB680023B4
:102EB000BB604B4A4A4B1B6B43F002031363484B06
:102EC0001B6B03F00203BB60BB6800237B60444ABA
:102ED000434B1B6B43F008031363414B1B6B03F025
:102EE00008037B607B68002208213E48FDF764FEF2
:102EF00000224FF480413C48FDF75EFE00224FF473
:102F000077413A48FDF758FE0823FB6101233B62F5
:102F100000237B620023BB6207F11C031946314882
:102F2000FDF7B0FC0123FB614FF488133B620223E1
:102F30007B6207F11C0319462D48FDF7A3FC4FF4F3
:102F40008043FB6101233B6200237B620023BB6261
:102F500007F11C0319462448FDF794FC4FF477430E
:102F6000FB6101233B6200237B620023BB6207F10C
:102F70001C0319461D48FDF785FC8023FB610223D5
:102F80003B6200237B620023BB620623FB6207F1E6
:102F90001C0319461748FDF775FC4FF40063FB61ED
:102FA0004FF488133B6202237B6207F11C0319462E
:102FB0001048FDF767FC002200210620FDF72BFCDE
:102FC0000620FDF744FC002200212820FDF723FC09
:102FD0002820FDF73CFC00BF3037BD4680BD00BF58
:102FE000003802400010024000040240000C024081
:102FF000000002400008024080B582B000AF0346E6
:10300000FB80FB88012B02D10D4B01221A70FB883B
:10301000B3F5006F10D10B4B01221A704FF08043B3
:10302000094A12785A6300210848FEF7ABFB4FF4B7
:1030300000410748FDF7D9FD00BF0837BD4680BDF8
:10304000F9010020F801002000020020CC0200203D
:10305000000C024080B400AF72B6FEE780B582B0CB
:1030600000AF7860074A7B681360074B1B6898685D
:1030700000230222002100F065FB00BF0837BD4697
:1030800080BD00BF580300200C00002080B582B036
:1030900000AF78607B68002B04DB7B68022B01DCCF
:1030A000012305E000F07CFA0246092313600023A7
:1030B00018460837BD4680BD80B586B000AFF860C1
:1030C000B9607A60FB68012B02D0FB68022B11D13A
:1030D0000E4B18687B689AB24FF0FF33B968FFF760
:1030E00070F90346FB75FB7D002B01D17B6808E07E
:1030F000052306E000F054FA0246092313604FF05E
:10310000FF3318461837BD4680BD00BF5803002066
:1031100080B582B000AF78607B68002B04DB7B68F1
:10312000022B01DC002306E000F03AFA02460923F4
:1031300013604FF0FF3318460837BD4680BD80B599
:1031400084B000AFF860B9607A6000F029FA0246F6
:10315000092313604FF0FF3318461037BD4680BD7A
:1031600080B586B000AFF860B9607A60FB68002B6C
:1031700010D10E4B18684FF0FF330122B968FFF7EA
:10318000B1F90346FB75FB7D002B01D1012308E05B
:10319000052306E000F004FA0246092313604FF00D
:1031A000FF3318461837BD4680BD00BF58030020C6
:1031B00080B582B000AF786039607B68002B08DB97
:1031C0007B68022B05DC3B684FF400525A600023F9
:1031D00005E000F0E5F902460923136000231846D4
:1031E0000837BD4680BD000080B582B000AF002327
:1031F0007B60104A0F4B5B6C43F4804353640D4B70
:103200005B6C03F480437B607B6800233B60094A6E
:10321000084B1B6C43F080531364064B1B6C03F08C
:1032200080533B603B680720FDF7EAFA00BF083790
:10323000BD4680BD0038024080B58CB000AF7860DC
:1032400007F11C0300221A605A609A60DA601A6162
:103250007B681B68414A93422CD10023BB61404AE2
:103260003F4B5B6C43F4805353643D4B5B6C03F406
:103270008053BB61BB6900237B61394A384B1B6BB0
:1032800043F001031363364B1B6B03F001037B61B7
:103290007B69E023FB6102233B6200237B62032303
:1032A000BB620523FB6207F11C0319462D48FDF79D
:1032B000E9FA4FE07B681B682B4A93424AD100230E
:1032C0003B61274A264B1B6C43F480431364244B19
:1032D0001B6C03F480433B613B690023FB60204A85
:1032E0001F4B1B6B43F0040313631D4B1B6B03F05D
:1032F0000403FB60FB680023BB60194A184B1B6B7F
:1033000043F002031363164B1B6B03F00203BB6015
:10331000BB680C23FB6102233B6200237B62032317
:10332000BB620523FB6207F11C0319460F48FDF73A
:10333000A9FA4FF48063FB6102233B6200237B62A6
:103340000323BB620523FB6207F11C0319460848EF
:10335000FDF798FA00BF3037BD4680BD0030014010
:1033600000380240000002400038004000080240DF
:103370000004024080B485B000AF78607B681B68B1
:10338000B3F1804F0DD10023FB60094A084B1B6C41
:1033900043F001031364064B1B6C03F00103FB6055
:1033A000FB6800BF1437BD465DF8047B704700BF63
:1033B0000038024080B588B000AF786007F10C0398
:1033C00000221A605A609A60DA601A617B681B6892
:1033D000B3F1804F1ED10023BB60104A0F4B1B6B13
:1033E00043F0010313630D4B1B6B03F00103BB6040
:1033F000BB684FF40043FB6002233B6100237B6109
:103400000023BB610123FB6107F10C03194604484B
:10341000FDF738FA00BF2037BD4680BD00380240B6
:103420000000024080B58AB000AF786007F1140355
:1034300000221A605A609A60DA601A617B681B6821
:10344000194A93422BD100233B61184A174B1B6C3E
:1034500043F400331364154B1B6C03F400333B61DE
:103460003B690023FB60114A104B1B6B43F00103C7
:1034700013630E4B1B6B03F00103FB60FB680C2313
:103480007B610223BB610023FB6103233B620723B3
:103490007B6207F1140319460548FDF7F3F900BFF5
:1034A0002837BD4680BD00BF0044004000380240C0
:1034B0000000024080B400AFFEE780B400AFFEE73A
:1034C00080B400AFFEE780B400AFFEE780B400AF89
:1034D000FEE780B400AF00BFBD465DF8047B7047D7
:1034E00080B400AF00BFBD465DF8047B704780B478
:1034F00000AF00BFBD465DF8047B704780B500AFEC
:10350000FDF790F800BF80BD80B500AF0120FDF74A
:1035100087FB00BF80BD80B500AF4FF40060FDF7B2
:103520007FFB00BF80BD000080B400AF064A064BA1
:10353000D3F8883043F47003C2F8883000BFBD462A
:103540005DF8047B704700BF00ED00E0DFF834D089
:103550000D480E490E4A002302E0D458C4500433EB
:10356000C4188C42F9D30B4A0B4C002301E01360C2
:103570000432A242FBD3FFF7D7FF00F017F8FFF7A2
:1035800071FA704700C0012000000020DC0100201B
:1035900008550008DC01002060030020FEE7000061
:1035A000014B1868704700BF0C00002070B50D4E2D
:1035B0000D4CA41BA4100025A54209D10B4E0C4CA8
:1035C00001F05AFEA41BA4100025A54205D170BD30
:1035D00056F8253098470135EEE756F825309847DC
:1035E0000135F2E7005500080055000800550008B5
:1035F0000455000810B5431E0A44914200D110BD85
:1036000011F8014B03F8014FF7E7024403469342D8
:1036100000D1704703F8011BF9E700000FB40A4B13
:1036200013B51C6824B1A36913B9204600F0FCFA55
:1036300005AB049AA1680193204600F0DDFC02B0BE
:10364000BDE8104004B070470C00002070B50E4675
:10365000054618B183690BB900F0E6FAAB69AC68AE
:1036600013B9284600F0E0FA234B9C4217D16C684E
:10367000A3891B071DD52369DBB1013EA36816F89A
:10368000011F013BA360E9B9002B2EDA22460A2173
:10369000284600F005F9013011D00A2070BD174B03
:1036A0009C4201D1AC68E3E7154B9C4208BFEC6833
:1036B000DEE72146284600F045F90028DDD04FF02E
:1036C000FF3070BD002B04DAA269934206DB0A29A1
:1036D00004D023685A1C22601970CFE7224628467E
:1036E00000F0DEF80130C9D1E9E723680A205A1C4E
:1036F0002260187070BD00BF5C5300087C53000846
:103700003C530008024B01461868FFF79FBF00BFFB
:103710000C0000200FB40A4B13B51C6824B1A36938
:1037200013B9204600F080FA05AB049A6168019352
:10373000204601F061F802B0BDE8104004B07047C7
:103740000C0000202DE9F7431D46514B1E6804462E
:103750000F46904626B1B36913B9304600F064FABB
:103760004C4B9C4252D17468B8F1020F06D0B8F1AC
:10377000010F00F28980002DC0F28680214630467C
:1037800000F0D6F9616B41B104F14403994202D0D3
:10379000304600F05BFB002363630023A36163609A
:1037A000A3891B0603D52169304600F04FFBA3898E
:1037B00023F44A6323F00303B8F1020FA3815DD021
:1037C00001AB6A462146304600F0D4FAA38918437B
:1037D000A0812DBB009D284600F030FB0746002845
:1037E0004ED1DDF80090A9453CD14FF0FF30A389C0
:1037F00043F00203A3810023A36004F14703236085
:1038000023610123636103B0BDE8F083224B9C4236
:1038100001D1B468A8E7214B9C4208BFF468A3E734
:10382000002FD8D0B36913B9304600F0FDF9B8F1D4
:10383000010F08BFA389276004BF43F00103A381E0
:10384000A389276113F0080065611BD013F0010004
:1038500018BF6D424FF000031DBFA360A56118465D
:10386000A560D0E7484600F0E9FA07460028BCD03A
:10387000A38943F08003A3814D46D3E70020B6E738
:10388000A946F5E7A060BEE74FF0FF30BBE700BFF9
:103890000C0000205C5300087C5300083C530008D7
:1038A000F8B50E461446054618B183690BB900F009
:1038B000BBF9214B9C422AD16C68A369A360A38900
:1038C0001A072ED5236963B323692068C01A636978
:1038D000F6B29842374604DB2146284600F028F924
:1038E00028BBA368013BA36023685A1C22601E709A
:1038F00063690130984204D0A389DB0719D50A2EE9
:1039000017D12146284600F013F990B10FE00B4B78
:103910009C4201D1AC68D0E7094B9C4208BFEC68DF
:10392000CBE72146284600F00DF80028CCD04FF018
:10393000FF373846F8BD00BF5C5300087C530008D1
:103940003C530008324B70B51D6806460C4625B145
:10395000AB6913B9284600F067F92E4B9C420FD192
:103960006C68B4F90C309AB215072CD4D00611D477
:103970000922326043F04003A3814FF0FF3070BD55
:10398000254B9C4201D1AC68EBE7244B9C4208BF1D
:10399000EC68E6E7510712D5616B41B104F14403CD
:1039A000994202D0304600F051FA00236363A389A4
:1039B00023F02403A3810023636023692360A38988
:1039C00043F00803A38123694BB9A38903F420734F
:1039D000B3F5007F03D02146304600F0EFF9A2890D
:1039E00012F001030CD00023A36063695B42A36162
:1039F000236953B9B4F90C3013F08000BAD170BD0B
:103A0000920758BF6369A360F2E70020F7E700BFA1
:103A10000C0000205C5300087C5300083C53000855
:103A20008A892DE9F041054610070C465AD44B68A7
:103A3000002B05DC0B6C002B02DC0020BDE8F081C4
:103A4000E66A002EF9D0002312F480522F682B6012
:103A500033D0606DA3895A0705D56368C01A636BBC
:103A60000BB1236CC01A00230246E66A216A28467D
:103A7000B047431CA38906D129681D294BD82B4A7E
:103A8000CA40D60747D500226260D9042269226065
:103A900004D5421C01D12B6803B96065616B2F60AE
:103AA0000029CAD004F14403994202D0284600F00C
:103AB000CDF900206063BDE8F081216A012328462A
:103AC000B047411CC6D12B68002BC3D01D2B01D0A1
:103AD000162B01D12F60B0E7A38943F04003A381E7
:103AE000BDE8F0810F69002FA7D093070E6808BFCB
:103AF0004B690F6018BF0023A6EB07088B60B8F175
:103B0000000F9ADD43463A46216AA66A2846B04726
:103B1000002807DCA38943F04003A3814FF0FF3066
:103B2000BDE8F0810744A8EB0008E8E70100402069
:103B300038B50B6905460C46DBB118B183690BB982
:103B400000F072F80C4B9C4209D16C68B4F90C304F
:103B50007BB121462846BDE83840FFF761BF074BDF
:103B60009C4201D1AC68F1E7054B9C4208BFEC6870
:103B7000ECE7002038BD00BF5C5300087C53000810
:103B80003C530008014620B9044B0549186800F071
:103B9000D3B8044B1868FFF7CBBF00BF38530008F9
:103BA000313B00080C000020014900F0C5B800BFFF
:103BB000313B0008002310B5044603604360836076
:103BC00081814366C2810361436183611946082292
:103BD0005C30FFF71AFD054B6362054BA362054B92
:103BE000E362054B2462236310BD00BFA14C0008B3
:103BF000C34C0008FB4C00081F4D000870B54A1E5E
:103C0000682555430E4605F1740100F06DF9044630
:103C100040B1002180E842000C30A06005F168024C
:103C2000FFF7F3FC204670BD836910B5044633BB33
:103C30008364C3640365124B124A1B688262984214
:103C400004BF0123836100F01FF86060204600F08C
:103C50001BF8A060204600F017F80022E060042165
:103C60006068FFF7A7FF01220921A068FFF7A2FF04
:103C700002221221E068FFF79DFF0123A36110BD1E
:103C800038530008A93B0008F8B51C4B1E68B369FF
:103C9000074613B93046FFF7C7FF4836B468736864
:103CA000013B03D5336833B13668F7E7B4F90C50FC
:103CB0006DB16834F4E704213846FFF79FFF3060A8
:103CC0000028F1D10C233B6004462046F8BD4FF696
:103CD000FF73E3810123A38165662560A5606560AC
:103CE00025616561A5610822294604F15C00FFF7A2
:103CF0008CFC6563A563A564E564E6E738530008BA
:103D00002DE9F041884600F14804002614B93046F8
:103D1000BDE8F081A5686768013F01D52468F5E733
:103D2000AB89012B06D9B5F90E30013302D02846F4
:103D3000C04706436835EFE72DE9F84380468946DA
:103D400000F14804002614B93046BDE8F883A568A0
:103D50006768013F01D52468F5E7AB89012B07D9D6
:103D6000B5F90E30013303D029464046C847064313
:103D70006835EEE770B50E46B1F90E10002990B027
:103D800014461D4607DA00232B60B3891A0610D4A7
:103D90004FF480630EE001AA01F0B8F90028F2DBCD
:103DA000029A02F47042A2F500535A425A412A6024
:103DB000EEE740230020236010B070BD8B8973B5FF
:103DC0009D0706460C4607D504F14703236023618F
:103DD0000123636102B070BD01AB6A46FFF7CAFF01
:103DE00000990546304600F07FF848B9B4F90C3028
:103DF0009A05EFD423F0030343F00203A381E3E722
:103E00000D4BB362A389206043F08003A381009B24
:103E10006361019B20615BB1B4F90E10304601F083
:103E200087F928B1A38923F0030343F00103A38199
:103E3000A3891D43A581CDE7A93B0008024B01469C
:103E4000186800F051B800BF0C00002038B50546D6
:103E5000002945D051F8043C0C1F002BB8BFE418D2
:103E600001F0ACF91F4A1368104633B9636014605F
:103E70002846BDE8384001F0A2B9A3420CD9216818
:103E80006218934204BF1A685B68636004BF5218EB
:103E900022600460ECE713465A680AB1A242FAD9DC
:103EA00019685818A0420BD1206801445818824262
:103EB0001960DDD1106852685A6001441960D7E773
:103EC00002D90C232B60D3E7206821188A4204BF53
:103ED00011685268626004BF091821605C60C7E71E
:103EE00038BD00BF0402002070B5CD1C25F00305CD
:103EF00008350C2D38BF0C25002D064601DBA942E4
:103F000003D90C233360002070BD01F057F9234A18
:103F10001468214691B9224C23681BB9304600F041
:103F20007FFE20602946304600F07AFE431C26D1F1
:103F30000C233360304601F042F9E4E70B685B1B69
:103F40001AD40B2B0FD90B60CD50CC18304601F092
:103F500036F904F10B00231D20F00700C31A1BD013
:103F60005A42E25070BD8C420DBF63684B6863607B
:103F7000136018BF0C46E9E70C464968CAE7C41C41
:103F800024F00304A04205D0211A304600F048FE78
:103F90000130CDD02560D9E770BD00BF04020020FC
:103FA000080200209368013B002B10B4936009DAEB
:103FB0009469A34202DBCBB20A2B03D15DF8044B18
:103FC000FFF76EBC1368581C10601970C8B25DF81A
:103FD000044B7047F8B506460F461446D518AC4258
:103FE00001D1002007E03A4614F8011B3046FFF7E4
:103FF000D9FF431CF3D1F8BD2DE9F04F9DB00C461D
:1040000017460393064618B183690BB9FFF70CFEF8
:104010007C4B9C4257D17468A38918075DD52369EE
:10402000002B5AD00023099320238DF82930302308
:104030008DF82A304FF0010BB846454615F8013B84
:10404000002B55D1B8EB070A0BD053463A46214610
:104050003046FFF7BFFF013000F0C480099B534496
:10406000099398F80030002B00F0BC8000234FF03B
:10407000FF3204930793059206938DF853301A93F9
:10408000052229786048FCF7A3F805F10108049B94
:10409000002831D1D90644BF20228DF853201A07B9
:1040A00044BF2B228DF853202A782A2A2CD0079A35
:1040B00000210A20A846013598F80030303B092B32
:1040C0006DD971B326E0514B9C4201D1B468A3E78E
:1040D0004F4B9C4208BFF4689EE721463046FFF7ED
:1040E00031FC00289ED04FF0FF301DB0BDE8F08FAE
:1040F000252BA7D0A846A0E7434A801A0BFA00F068
:10410000184304904546BBE7039A111D12680391BA
:10411000002A01DB079204E0524243F002030792B7
:10412000049398F800302E2B10D198F801302A2BE8
:1041300008F1010137D1039B1A1D1B680392002B64
:10414000B8BF4FF0FF3308F102080593314D98F8DE
:10415000001003222846FCF73BF840B14023401BE7
:1041600003FA00F0049B0343049308F1010898F854
:10417000001029488DF82810062208F10107FCF7E5
:1041800027F8002834D0254B03BB039B073323F0CB
:10419000070308330393099B4B4409934CE700FB47
:1041A0000232012186E70023059318460A25884636
:1041B000013198F80020303A092A03D9002BC5D0E4
:1041C0000590C3E705FB00200123F0E703AB009354
:1041D0002246134B04A93046AFF30080B0F1FF3FF5
:1041E0008146D8D1A3895B063FF57DAF09987CE76E
:1041F00003AB009322460A4B04A9304600F088F82E
:10420000ECE700BF5C5300089C5300087C53000897
:104210003C530008A2530008A65300080000000009
:10422000D53F00082DE9F04791461F468A680B6983
:10423000DDF820809342B8BF1346C9F8003091F8EA
:10424000432006460C4612B10133C9F800302368FA
:10425000990642BFD9F800300233C9F8003025680A
:1042600015F0060507D104F1190AE368D9F8002012
:104270009B1A9D4229DB94F843302268003318BF13
:10428000012392062ED404F1430239463046C0473A
:10429000013021D02368E568D9F8002003F0060337
:1042A000042B08BFAD1AA36822690CBF25EAE57587
:1042B00000259342C4BF9B1AED184FF000091A3431
:1042C0004D451BD10020BDE8F087012352463946F9
:1042D0003046C047013003D14FF0FF30BDE8F087D2
:1042E0000135C2E7E1185A1C302081F8430022440E
:1042F00094F8451082F843100233C4E701232246A4
:1043000039463046C0470130E6D009F10109D7E708
:104310002DE9F04317460A7E85B06E2A9846064678
:104320000C460C9B01F1430E00F0BC801AD8632AA6
:104330002ED00AD8002A00F0C880582A00F08A80BF
:1043400004F1420584F842202AE0642A01D0692A57
:10435000F6D121681A6811F0800F23D0111D196061
:10436000136827E0732A00F0B48008D86F2A2AD097
:10437000702AE5D10A6842F020020A6003E0752A3B
:1043800021D0782ADCD1782284F845206E4964E077
:104390001A6801F14205111D1960136884F8423052
:1043A0000123A3E011F0400F02F104011960D7D0FE
:1043B000B2F90030002B03DA2D225B4284F843204F
:1043C00062490A2217E02068196810F0800F03D0B4
:1043D000081D18600B6806E010F0400F01F10400A2
:1043E0001860F7D00B8859496F2A14BF0A22082297
:1043F000002084F843006568A560002DC0F29C8011
:10440000206820F004002060002B3FD1002D40F0F8
:1044100095807546082A0BD12368DA0708D52369E9
:1044200062689A42DEBF302305F8013C05F1FF3592
:10443000AEEB05032361CDF800803B4603AA21467D
:104440003046FFF7EFFE013055D14FF0FF3005B099
:10445000BDE8F08381F845203C492268186812F0D5
:10446000800F00F104051D6001D0036802E05506CD
:10447000FBD50388D00744BF42F0200222601BB95D
:10448000226822F0200222601022B1E77546B3FBB9
:10449000F2F002FB1033CB5C05F8013D0346002827
:1044A000F5D1B7E708681A68496910F0800F04D0A1
:1044B000101D18601368196007E010F0400F02F13A
:1044C000040018601368F6D0198000232361754634
:1044D000B1E71A68111D1960156862680021284645
:1044E000FBF776FE08B1401B606063682361002320
:1044F00084F843309FE723692A4639463046C0474F
:104500000130A2D023689B0707D5002504F11909C3
:10451000E368039A9B1A9D4205DBE068039B98427F
:10452000B8BF184693E701234A4639463046C0478C
:1045300001308AD00135EBE7002BA7D10B7884F846
:10454000423004F1420565E7BE530008AD53000850
:104550002DE9F04FADF5257D0DF10C0801930023F9
:1045600046934793A04BA293DFF884929F4BCDF8DC
:10457000208106460C46A39392460A279AF80030FB
:10458000002B00F02F8100F0E7FD9AF800B05844AE
:10459000437813F0080343D1BBF1250F0AF101055D
:1045A00040F09980459343939AF801302A2B03D128
:1045B000102343930AF102052978A1F13002092A58
:1045C000AA4605F1010541D903228948FBF700FEFF
:1045D00038B1A0EB090301209840439B1843439056
:1045E000AA469AF80030672B0AF101054AD8652BD4
:1045F00080F0B780472B2FD8452B80F0B280002B5E
:1046000000F08280252B66D003234993449745E030
:104610004799013147916168013301396160236035
:104620006368002B0BDD00F097FD236819780844C0
:1046300041780D07ECD40AF10105AA469EE7A39B39
:104640002146304698470028EDD0F4E7459B07FB0C
:104650000313303B4593AFE75B2B61D00CD8582B4D
:10466000D2D1439A42F400724392102244926F2BAB
:10467000B4BF0323042310E0632B5CD0642BC3D1AD
:104680004497F4E7702B42D01DD86E2B59D043D8F5
:10469000692BB9D100234493032349936368002B0A
:1046A00061DD439B59066FD5499B022B7CDC01AB36
:1046B000224643A9304600F0C7F8012800F0928056
:1046C0000228BAD11DE0752BDAD0782BC9D0732B14
:1046D0009AD10223E1E76368002B0CDD23681A7886
:1046E00093457FD1013362682360479B013A0133D0
:1046F00062604793A1E7A39B214630469847002874
:10470000ECD04698002863D14FF0FF3066E0439A22
:1047100042F020024392A4E7082344930423BCE719
:104720002946404600F08CFA439B43F040034393F4
:1047300005460123B1E7439B43F040034393002325
:10474000ABE7439AD0063FF578AF12F0010F019A1C
:10475000479B02F104010191126814BF138013609A
:104760006BE7052399E7A39B21463046984700282D
:1047700097D0C6E7479A013247926268013A002A09
:1047800062600ADD0133236000F0E6FC23681A78DA
:10479000104442781207EDD486E7A39B21463046A9
:1047A00098470028F0D0ACE7042B06DC01AB22468A
:1047B00043A9304600F0ACF87FE70E4B002B3FF4E6
:1047C0003CAF01AB224643A93046AFF3008074E70B
:1047D000A38913F0400F18BF4FF0FF300DF5257D72
:1047E000BDE8F08F4698F9E7E54F00080D4B00084B
:1047F000A2530008000000002DE9F0410C461646C7
:104800001F46054618B183690BB9FFF70DFA0B4B2C
:104810009C4208D16C683B46324621462846BDE89A
:10482000F041FFF795BE064B9C4201D1AC68F2E720
:10483000044B9C4208BFEC68EDE700BF5C530008E6
:104840007C5300083C5300082DE9F04115468A6866
:1048500080460C4632B98A69002A0CBF01224FF00B
:10486000FF328A602268D1065FBF1A68111D196085
:1048700017680026A369DBB1012B07D12B68626999
:104880001B78D35CA3B9002E32D106E0022B07D0EF
:10489000002E2DD1A369012B2AD10120BDE8F08182
:1048A00000F05AFC2B681B78184443781B07EFD4A0
:1048B0002368DA065EBF2B681B783B702A686B683A
:1048C00002F101022A60A26803F1FF3302F1FF3214
:1048D0006B6006F1010658BF0137A26042B1002BA0
:1048E000C8DCD4F880312946404698470028C1D01A
:1048F000236813F0100305D1E2680132E260A26977
:1049000002B13B7023691E4426610020BDE8F0819E
:104910002DE9F04F9A46744B0C468346164693E8B1
:10492000070087B003ABA76883E807006F4BA16956
:104930006F4A032918BF1A467B1EB3F5AE7F84BFAA
:1049400040F25D13A3602368009243F4506388BF74
:104950006FF4AE7504F11C0923608CBF7F1900272A
:104960004B464FF000080193316803AB022253F825
:1049700028000978FBF72CFC019B28B3B8F1010F44
:1049800056D162682AB908226260226842F4007235
:104990002260226822F4A0622260A268511EA160F7
:1049A00092B13268511C316012781A705D1C7368C4
:1049B000013B002B736006DCD4F880313146584649
:1049C0009847002876D12B4608F10108B8F1030F6B
:1049D000C9D162680AB90A226260626845496069A1
:1049E0000193891A00F02CF9019B4FF000081D4635
:1049F000A368002B38D0316860690A78805C002891
:104A000032D0302A226821D110051FD508F10108C3
:104A100017B10133013FA3607368013B002B736042
:104A20001BDD336801333360A368013BA360DFE71C
:104A3000B8F1020FB1D1226802F4C061B1F5007F74
:104A4000C2D11021616042F48072A5E722F41062A5
:104A500022600B782B700135DEE7D4F880313146C7
:104A6000584698470028DFD02368D9050CD54D4516
:104A700008D915F8011CD4F87C31324658469847BD
:104A80006F1E3D464D452CD0226812F010021ED1FB
:104A90002A706368009E49465846B0472268DAF893
:104AA000003012F0200F08D01A1DCAF800201B6831
:104AB000186009E04FF00008D6E7D207F4D51A1DB8
:104AC000CAF800201B681880E3680133E360A5EB97
:104AD0000905A844256945442561002007B0BDE8C3
:104AE000F08F0120FAE700BF14530008494F000877
:104AF000294E0008DF530008838903F00903092BBE
:104B000001D1FFF73FB8002070470000F8B50C4610
:104B1000054618B183690BB9FFF786F83B4B9C42F9
:104B20000AD16C68B4F90C200023636093B29E062E
:104B30000CD54FF0FF30F8BD354B9C4201D1AC682D
:104B4000F0E7344B9C4208BFEC68EBE7580748D4C9
:104B5000D90605D4092342F040022B60A281E8E780
:104B60001A070BD521462846FEF7E2FF0028E0D1C0
:104B7000A389A06023F00803A381A061A38943F067
:104B80000403A38123691BB921462846FFF716F9C0
:104B9000B4F90C70BEB2B3070FD00123A3811E4B32
:104BA0001E49186806F00906FFF7AAF8092EA78122
:104BB00003D121462846FEF733FF22692260666A48
:104BC0006369216A2846B047002860601CDCA3891D
:104BD00017BF002243F0200343F040036260A3812B
:104BE000A7E7616B0029CDD004F14403994202D0BC
:104BF0002846FFF72BF9236C636000206063002BCD
:104C0000C0D0E36B2360F8BD0020F8BD5C53000802
:104C10007C5300083C53000838530008F94A000848
:104C200038B5064C002305460846236000F016FB05
:104C3000431C02D1236803B12B6038BD5C03002004
:104C400070B50B785E2B13BF4A1C8A1C4B78002171
:104C500008BF0121441E00F1FF0504F8011FA54211
:104C6000FBD113B9013A104670BD81F00104C45460
:104C700011460D782D2D01F1010206D05D2DF2D0E7
:104C80000DB90A46EFE72B46F1E74E785D2EFAD0D4
:104C9000B342F8DC023101339E42C454FBDCE8E746
:104CA00010B50C46B1F90E1000F0B0FA0028ABBFF9
:104CB000636DA3891B1823F48053ACBF6365A38184
:104CC00010BD2DE9F0411F468B89DB0505460C46DA
:104CD000164605D502230022B1F90E1000F04AFA5B
:104CE000A389B4F90E1023F48053A38132463B46C6
:104CF0002846BDE8F04100F0E7B910B50C46B1F91F
:104D00000E1000F037FA431CA38915BF606523F429
:104D1000805343F48053A38118BFA38110BDB1F920
:104D20000E1000F0E3B92DE9F84F8046894692460F
:104D30001F468B465D460A9815F8014B00F008FAAD
:104D40002044467816F008060BD12D2C0BD12C7878
:104D500001260BF1020567B1102F14D1302C0AD0B7
:104D600011E0AB46E6E72B2C04BF2C780BF10205D3
:104D7000F1E7302C27D12B7803F0DF03582B4BD1F0
:104D80006C7810270235002E0CBF6FF000414FF0F9
:104D900000410022B1FBF7FE104607FB1E1CA4F1E8
:104DA0003003092B11D81C46A7421DDD531C07D028
:104DB000864516D301D1A44513DB00FB0740012231
:104DC00015F8014BEBE70A27DDE7A4F14103192BA6
:104DD00001D8373CE8E7A4F16103192B04D8573C0C
:104DE000E2E74FF0FF32EBE7531C08D12223C8F86B
:104DF00000300846BAF1000F07D1BDE8F88F06B1C0
:104E00004042BAF1000F0CD022B1013DCAF8005067
:104E1000BDE8F88F4D46F9E73024002FB3D10827BD
:104E2000B1E7BDE8F88F000037B5064C064D2468A1
:104E3000246A002C08BF2C460094FFF774FF03B0CF
:104E400030BD00BF0C000020700000202DE9F047AD
:104E50008046894692461E460F463D46089815F8FC
:104E6000014B00F075F92044437813F008030AD190
:104E70002D2C0AD12C780123BD1C5EB1102E13D12C
:104E8000302C09D010E02F46E7E72B2C04BF2C78FC
:104E9000BD1CF2E7302C25D12A7802F0DF02582A17
:104EA0004AD16C78102602354FF0FF310027B1FB54
:104EB000F6F106FB01FE6FEA0E0E3846A4F1300251
:104EC000092A11D81446A6421DDD002F18DB8142A5
:104ED00016D301D1A64513DB00FB0640012715F8C8
:104EE000014BEBE70A26DFE7A4F14102192A01D8BA
:104EF000373CE8E7A4F16102192A04D8573CE2E7FD
:104F00004FF0FF37EBE7002F09DA2223C8F8003013
:104F10004FF0FF30BAF1000F07D1BDE8F08703B1C1
:104F20004042BAF1000F0CD027B1013DCAF8005041
:104F3000BDE8F0874D46F9E73024002EB4D10826AD
:104F4000B2E7BDE8F087000037B5064C064D24688F
:104F5000246A002C08BF2C460094FFF777FF03B0AB
:104F600030BD00BF0C000020700000202DE9F04192
:104F70000C46496B04F1440399421ED14FF4806101
:104F8000FEF7B2FF18B94FF0FF30BDE8F0814FF4E3
:104F90008063A36394F84630606380F8FF3394F82D
:104FA000453080F8FE3394F8443080F8FD3300F249
:104FB000FD3020600020BDE8F081A66B77003A4606
:104FC00000F0FEF805460028DDD000EB060801469B
:104FD00032464046FEF70EFBC4F800806563A763C7
:104FE000E8E700004B1C70B506460D46144603D199
:104FF0004FF0FF35284670BD18B183690BB9FEF735
:1050000013FE2E4B9C422CD17468B4F90C3023F063
:105010002003A3819BB2590713D4DA06E8D51B07F6
:105020000BD521463046FEF783FD0028E0D1A38949
:10503000A06023F00803A381A061A38943F00403C7
:10504000A381636B6268EDB2E3B1A36B9A4212DA9B
:1050500023685A1E226003F8015C636801336360B1
:10506000C8E7174B9C4201D1B468CEE7154B9C4270
:1050700008BFF468C9E721463046FFF777FF0028EC
:10508000E6D0B5E72169236851B1994208D213F8F7
:10509000011C8D4204D1013B013223606260A9E70B
:1050A000E36304F1440363630323A363234622649D
:1050B00003F8465F23600123D1E700BF5C5300087B
:1050C0007C5300083C53000838B5074C0546084699
:1050D0001146002222601A46FDF7EEFF431C02D162
:1050E000236803B12B6038BD5C03002038B5064C43
:1050F0000023054608462360FEF70AF8431C02D148
:10510000236803B12B6038BD5C03002038B5074C21
:1051100000230546084611462360FEF749F8431C64
:1051200002D1236803B12B6038BD00BF5C030020AF
:1051300038B5064C0023054608462360FDF7A6FF58
:10514000431C02D1236803B12B6038BD5C030020EF
:10515000D0F8EC0070470000044B054A1B681B6A3E
:10516000002B08BF1346D3F8EC0070470C0000205A
:105170007000002038B5074C05460846114600224D
:1051800022601A46FDF7DBFF431C02D1236803B1FE
:105190002B6038BD5C03002082B001B901A942B187
:1051A0004BB113780B601278101C18BF012002B0AD
:1051B00070471046FBE76FF00100F8E77047704753
:1051C000F8B5074614460E4621B91146BDE8F84029
:1051D000FEF78ABE22B9FEF739FE25462846F8BDFD
:1051E00000F033F884420FD921463846FEF77CFEA2
:1051F00005460028F2D031462246FEF7FBF931463B
:105200003846FEF723FEE9E73546E7E738B5074CB1
:10521000054608461146002222601A46FDF7A0FF07
:10522000431C02D1236803B12B6038BD5C0300200E
:1052300049B1FF2A85BF8A2303600A704FF0FF300F
:1052400098BF012070470846704751F8040C0028A9
:10525000A0F10400BCBF0B58C0187047044B19687C
:10526000024609B903491960186802441A60704778
:105270000C02002060030020F8B500BFF8BC08BC99
:105280009E467047F8B500BFF8BC08BC9E46704704
:105290005374617274696E67206174203025252013
:1052A00064757479206379636C6520627920646524
:1052B0006661756C740D0A00456E746572204E65EA
:1052C000772044757479204379636C650D00000084
:1052D0002564000025640D0A00000000456E746519
:1052E000722044757479204379636C652076616C13
:1052F0007565206265747765656E203020746F2057
:105300003130302E200D0A205472792041676169B6
:105310006E0D0000E1530008E4530008E753000855
:105320000000000000000000010203040607080955
:105330000000000001020304100000200000000033
:10534000000000000000000000000000000000005D
:10535000000000000000000000000000000000004D
:10536000000000000000000000000000000000003D
:10537000000000000000000000000000000000002D
:10538000000000000000000000000000000000001D
:10539000000000000000000000000000232D302B62
:1053A0002000686C4C006566674546470030313226
:1053B000333435363738394142434445460030317D
:1053C000323334353637383961626364656600419B
:1053D0002D46612D66383930313233343536375DFC
:1053E000002B2D003030007858004300504F5349B7
:1053F00058002E00002020202020202020202828B7
:105400002828282020202020202020202020202084
:1054100020202020208810101010101010101010C4
:1054200010101010100404040404040404040410F4
:105430001010101010104141414141410101010182
:10544000010101010101010101010101010101014C
:105450001010101010104242424242420202020258
:10546000020202020202020202020202020202021C
:1054700010101010200000000000000000000000CC
:10548000000000000000000000000000000000001C
:10549000000000000000000000000000000000000C
:1054A00000000000000000000000000000000000FC
:1054B00000000000000000000000000000000000EC
:1054C00000000000000000000000000000000000DC
:1054D00000000000000000000000000000000000CC
:1054E00000000000000000000000000000000000BC
:0854F0000000000000000000B4
:0854F800A8ADFF7F01000000D8
:04550000B5010008E9
:045504009101000809
:1055080010000000010000000024F400100000203A
:10551800000000005C5300087C5300083C5300085E
:105528000000000000000000000000000000000073
:105538000000000000000000000000000000000063
:105548000000000000000000000000000000000053
:105558000000000000000000000000000000000043
:105568000000000000000000000000000000000033
:1055780043000000000000000000000000000000E0
:105588000000000000000000000000000000000013
:1055980043000000000000000000000000000000C0
:1055A80000000000000000000000000000000000F3
:1055B80043000000000000000000000000000000A0
:1055C80000000000000000000000000000000000D3
:1055D8004300000000000000000000000000000080
:1055E80000000000000000000000000000000000B3
:1055F8004300000000000000000000000000000060
:105608000000000000000000000000000000000092
:10561800430000000000000000000000000000003F
:105628000000000000000000000000000000000072
:10563800430000000000000000000000000000001F
:105648000000000000000000000000000000000052
:10565800315200089951000800000000F453000876
:10566800F2530008A1530008A1530008A1530008F1
:10567800A1530008A1530008A1530008A153000832
:10568800A1530008A1530008FFFFFFFFFFFFFFFF22
:10569800FFFFFFFFFFFF000001004153434949009E
:1056A80000000000000000000000000000000000F2
:1056B8000000000000000000000041534349490079
:1056C80000000000000000000000000000000000D2
:0C56D800000000000000000000000000C6
:040000050800354D6D
:00000001FF
